:020000040800F2
:100000006073002059020008713B00084D0D000884
:100010006D3B00082D0800087F4500080000000027
:10002000000000000000000000000000A101000826
:10003000550B000800000000F5010008713F0008A2
:1000400073020008730200087302000873020008BC
:1000500073020008730200087302000873020008AC
:10006000730200087302000873020008730200089C
:10007000730200087302000873020008730200088C
:10008000730200087302000873020008730200087C
:10009000730200087302000873020008730200086C
:1000A000730200087302000873020008730200085C
:1000B00073020008E93F0008730200087302000899
:1000C000730200087302000873020008730200083C
:1000D0007302000881400008094100088D410008B2
:1000E000730200087302000873020008730200081C
:1000F000730200087302000873020008730200080C
:10010000730200087302000821400008730200080F
:1001100073020008730200087302000873020008EB
:1001200073020008730200087302000873020008DB
:1001300073020008730200087302000873020008CB
:1001400073020008730200087302000873020008BB
:1001500073020008730200087302000811420008CD
:10016000730200087302000873020008730200089B
:10017000730200087302000873020008730200088B
:100180007302000873020008DFF810D000F03CFB97
:1001900000480047E14F0008AFF300806073002083
:1001A0002A4B19680868B0E8F04F80F30988BFF35C
:1001B0006F8F4FF0000080F311887047000000003F
:1001C00006480068006880F3088862B661B6BFF32D
:1001D0004F8FBFF36F8F00DF00BF00BF08ED00E05F
:1001E000DFF80C00016841F470010160704700BF46
:1001F00088ED00E0EFF30980BFF36F8F134B1A68AF
:100200001EF0100F08BF20ED108A20E9F04F10609B
:1002100008B44FF0500080F31188BFF34F8FBFF345
:100220006F8F05F05FF94FF0000080F3118808BC74
:1002300019680868B0E8F04F1EF0100F08BFB0EC66
:10024000108A80F30988BFF36F8F70475400002035
:10025000EFF30580704700000648804706480047D6
:10026000FEE7FEE7FEE7FEE7FEE7FEE7FEE7FEE766
:10027000FEE7FEE7813F00088901000840EA01032C
:100280009B0703D009E008C9121F08C0042AFAD24C
:1002900003E011F8013B00F8013B521EF9D2704710
:1002A0002DE9FE4F804681EA0300C00F0C46009006
:1002B00021F0004123F00045B8EB0200A94105D22E
:1002C0004046214690461C460B46024623F000401D
:1002D000104347D0270DC7F30A00C3F30A51029019
:1002E000401A019040286BDAC3F3130040F4801BDE
:1002F0000098924620B10023D2EB030A63EB0B0B6C
:1003000001985946C0F14002504600F04FF90646A8
:100310000D4650465946019A00F067F910EB080067
:100320006141002487EA115284EAE7731A4340D0FE
:10033000009A62B3019A012A4FEA075215DC001BAA
:1003400061EB02014FF0004202EA0752CDE90042A0
:10035000001C41F5801132462B4600F067F903B0CE
:10036000BDE8F08F40462146F9E7001B61EB020132
:10037000001C41F5801300185B412018A2F50017FE
:1003800047EB030140EAD570B6196D4111E06D08E5
:100390004FEA360645EAC0754FEA0752001B61EB8B
:1003A0000201001C41F5801149084FEA3000001994
:1003B000514132462B4603B0BDE8F04F00F027B95B
:1003C0000098012240000023D0EB020263EBE073AF
:1003D000009821464FEAE074B8EB000061EB04019D
:1003E000E9E783F000435BE781F0004158E72DE93E
:1003F000FE4F81EA030404F0004421F00041009420
:100400004FF0000B23F0004350EA01045ED052EAA3
:1004100003045BD0C3F30A54C1F30A552C44A4F27D
:10042000F3340194A0FB0254C1F3130141F4801191
:10043000C3F3130343F4801301FB024400FB034E98
:10044000840A970A44EA815447EA8357A4FB076861
:1004500002958D0A05FB07854FEA932C04FB0C548B
:100460002705029D4FEA065847EA1637B5EB0805FF
:100470006EEB070C870E920E47EA811742EA831251
:10048000A7FB0201B6EB0B0164EB00042B0D43EA62
:100490000C335E1844EB1C50DA465146E7FB020170
:1004A000C5F313044FEA0B3343EA14534FEA043203
:1004B000019C43EA0603A4F10C040294009CCDE9DC
:1004C00000B400F0B3F803B0BDE8F08F002001469F
:1004D000F9E70EB540F2334102910021CDE9001158
:1004E0000A460B4600F0A2F803B000BDC1F30A5261
:1004F00010B5C1F3130140F2FF3341F480119A4269
:1005000001DA002010BD40F233439A42A2F2334296
:1005100003DC524200F059F810BD904010BD30B5D8
:100520000B46014600202022012409E021FA02F5B1
:100530009D4205D303FA02F5491B04FA02F528444B
:10054000151EA2F10102F1DC30BD2DE9F05F054678
:10055000002092469B4688460646814640241BE082
:10056000284641464746224600F02FF853465A4651
:10057000C01A914110D311461846224600F016F8D1
:100580002D1A67EB01084F4622460120002100F09A
:100590000DF817EB00094E41201EA4F10104DFDC29
:1005A000484631462A464346BDE8F09F202A04DBF0
:1005B000203A00FA02F1002070479140C2F1200376
:1005C00020FA03F3194390407047202A04DB203AB5
:1005D00021FA02F00021704721FA02F3D040C2F163
:1005E00020029140084319467047202A06DBCB17AA
:1005F000203A41FA02F043EAE07306E041FA02F3DE
:10060000D040C2F12002914008431946704710B50E
:10061000141E73F1000408DA401C41F10001921825
:100620005B411A4301D120F0010010BD2DE9F04DCE
:1006300092469B4611B1B1FA81F202E0B0FA80F223
:1006400020329046FFF7B2FF04460F4640EA0A0008
:1006500041EA0B0153465A46084313D0114653EA68
:10066000010019D0C8F140025046FFF7AEFF054621
:100670000E46504659464246FFF798FF084305D0BC
:10068000012004E020463946BDE8F08D00200543F6
:1006900046EAE0762C4337430A986305E40AA0EB68
:1006A00008000022FD0A44EA47540A3002D500201F
:1006B0000146E9E7010510196941DDE9084500191E
:1006C0006941BDE8F04DA2E72DE9F04D81EA030450
:1006D00004F0004B21F0004514464FF0000A23F0CF
:1006E000004150EA050220D054EA01021DD0C5F3B2
:1006F0000A570246C5F31303C1F31300C1F30A56A8
:1007000040F4801543F48013A7EB0608101BD6466F
:1007100008F2FD3873EB050002D308F1010801E08F
:1007200092185B41B8F1000F03DA00200146BDE8E2
:10073000F08D00204FF48011064684460EE0171B12
:1007400073EB050705D3121B63EB050306434CEA65
:10075000010C49084FEA300092185B4150EA01074A
:10076000EDD152EA030012D082EA040083EA0501C7
:10077000084305D0101BAB4106D20122002306E03E
:1007800000224FF0004302E06FF0010253101AEB19
:1007900006004CEB085110EB0A0041EB0B01BDE8E1
:1007A000F04DFFF734BFC1F30A52C1F3130140F219
:1007B000FF3341F480119A4202DA0020014670476B
:1007C00040F233439A42A2F2334202DC5242FFF734
:1007D000FCBEFFF7EBBE000030B5041E71F1000453
:1007E00004DB4FF00044404264EB0101141E73F13E
:1007F000000405DB1C464FF00043524263EB040348
:10080000994208BF904230BD064C074D06E0E068B3
:1008100040F0010394E8070098471034AC42F6D347
:10082000FFF7B6FC605800088058000800BFFEE7DC
:1008300070B504460D462068D8B94FF4826004F0C4
:1008400005FC2060206805724FF4806090FBF5F095
:100850002168C860002021684880216808804FF422
:10086000826108A003F08EFE206810B90BA003F08F
:1008700089FE1148007820B900202168488021684D
:10088000088070BD2043616368655F71756575653B
:100890002073697A65202564200D0A004461746123
:1008A0005F5175657565206D616C6C6F6320666165
:1008B000696C740D0A0000001E0000200246094BFE
:1008C0009A4201D2084801E00648103801F000536E
:1008D0001BB1064B0B40C36002E0044B0B4083602E
:1008E0007047000010640240006002407D0F7D0FE1
:1008F00021B1026842F00102026003E0026822F0C6
:100900000102026070470000016821F001010160EE
:100910000021016041608160C1600161212141616C
:100920004A49884204D13D21484A103A91608CE0FE
:1009300046491831884205D14FF47461434A103A50
:10094000916082E041493031884205D14FF4741101
:100950003E4A103A916078E03C494831884205D1DE
:100960004FF07461394A103A91606EE03749603156
:10097000884204D13649354A103AD16065E033499E
:100980007831884204D13349304A103AD1605CE072
:100990002E499031884204D12F492C4A103AD16017
:1009A00053E02A49A831884205D14FF03D51274AEA
:1009B000103AD16049E02949884204D13D21274AB3
:1009C000083A116041E025491831884205D14FF4B9
:1009D0007461224A083A116037E020493031884278
:1009E00005D14FF474111D4A083A11602DE01B49DE
:1009F0004831884205D14FF07461184A083A1160B5
:100A000023E016496031884204D11149134A121F6C
:100A100011601AE011497831884204D10D490F4A1A
:100A2000121F116011E00D499031884204D10A492A
:100A30000A4A121F116008E00849A831884204D10F
:100A40004FF03D51054A121F11607047106002407F
:100A50003D000020400F002000003D2010640240B7
:100A6000014600200A6802F001020AB1012000E0FC
:100A7000002070470146486880B2704710B50022D8
:100A80000268134B1A40CC680B6823434C6923431C
:100A90008C692343CC6923430C6A23434C6A234368
:100AA0008C6A23434C6B23438C6B23431A430260B1
:100AB000426922F00702D1E90B3423431A43426111
:100AC0000B6943604B6883608B68C36010BD000096
:100AD0003F801CF04160704700B58FB00121480590
:100AE00003F0E8F81848FFF70FFF00BF1648FFF7BC
:100AF000B7FF0028FAD14FF0006000901348019032
:100B000013480290002003904FF47A700490002064
:100B100005904FF48060069000200790089009909F
:100B20004FF440300A9000200B9003200C900020DE
:100B30000D900E9069460448FFF7A0FF012102487E
:100B4000FFF7D6FE0FB000BD286002400448004009
:100B5000900C00207047000051B18200A2F1C04209
:100B6000126842F001038200A2F1C042136009E062
:100B70008200A2F1C0421268034B1A408300A3F125
:100B8000C0431A6070470000FEFF0F00D0E9011259
:100B90001143C268114302691143426911438269DA
:100BA0001143C2691143026A1143426A1143826AC6
:100BB0001143C26A1143026B114302689200A2F111
:100BC000C0421160816808290BD101688900A1F138
:100BD000C041096841F0400201688900A1F1C041AB
:100BE0000A60416B0968426B526841EA0211426B2C
:100BF000926841EA0221426B928941EA0241426BCA
:100C0000128A41EA0251426B127D41EA0261426B53
:100C1000926911430268521C9200A2F1C042116015
:100C2000C16AB1F5804F1BD1816B0968826B526834
:100C300041EA0211826B926841EA0221826B128AB8
:100C400041EA0251826B127D41EA0261826B926934
:100C5000114302689200A2F1C042C2F8041107E0F9
:100C60006FF0704201688900A1F1C041C1F8042110
:100C70007047F0B50A4600210023002400BF3DE084
:100C8000012505FA01F3156805EA03049C4234D1F5
:100C900005684F000326BE40B543056015794E0038
:100CA000B5400668354305601579012D02D01579E8
:100CB000022D16D185684F000326BE40B5438560DE
:100CC00055794E00B54086683543856045680126F4
:100CD0008E40B5434560456896798E40B6B235433F
:100CE0004560C5684F000326BE40B543C560D57951
:100CF0004E00B540C6683543C560491C1029BFD3B6
:100D0000F0BDF0B5002300244D07ED0E02FA05F307
:100D1000CE1000F1200555F826504E07F70E0F268D
:100D2000BE40B543CF1000F1200646F82750CE1044
:100D300000F1200555F8265045EA0304CE1000F1D5
:100D4000200545F82640F0BD0183704700BFFEE74F
:100D500070B50446002609480588408845430021AF
:100D6000084602F027FE02F0CDFE00BF02E0044874
:100D70000480761CAE42FAD370BD00006C010020E6
:100D80008000006C10B5044649488471002C45D1A0
:100D9000F020474908804FF4A070488008468088BA
:100DA00045F21051884210D14FF43050404908812B
:100DB0004FF4285048814FF42C5088814FF4F07044
:100DC00008804FF4487048801AE03948808841F61E
:100DD000631188420DD12C20354908812B20488190
:100DE0002A2088814FF4F07008804FF448704880C2
:100DF00006E02C202E4908812A2048812B2088815A
:100E00002B48808845F2103188424CD14FF4A070B5
:100E1000274908804FF4F070488044E04FF4A070F8
:100E200023490880F02048800846808845F2105108
:100E3000884210D14FF430501D4908814FF428509A
:100E400048814FF42C5088814FF4487008804FF44B
:100E5000F07048801AE01648808841F66311884295
:100E60000DD12C20124908812A2048812B2088810D
:100E70004FF4487008804FF4F070488006E02C2052
:100E80000B4908812A2048812B20888108488088C6
:100E900045F21031884206D14FF4F07004490880C1
:100EA0004FF4A0704880002002F06AFC10BD0000E2
:100EB0006C01002000B5A1B00020209001217A2013
:100EC00002F0F8FE0121084602F004FF4FF4004052
:100ED0001E9001208DF87C0000208DF87E000220FD
:100EE0008DF87D0001208DF87F001EA9FE48FFF7D8
:100EF000C0FE4CF233701E9002208DF87C00002062
:100F00008DF87E0003208DF87D0001208DF87F0094
:100F10001EA9F648FFF7ADFE4FF680701E90022026
:100F20008DF87C0000208DF87E0003208DF87D0078
:100F300001208DF87F001EA9ED48FFF79AFE4FF4BF
:100F400080501E9002208DF87C0000208DF87E00DD
:100F500003208DF87D0001208DF87F001EA9E54853
:100F6000FFF787FE4FF480501E9002208DF87C0022
:100F700000208DF87E0003208DF87D0001208DF883
:100F80007F001EA9DC48FFF774FE0C220021D74821
:100F9000FFF7B7FE0C220121D448FFF7B2FE0C2266
:100FA0000421D248FFF7ADFE0C220521CF48FFF700
:100FB000A8FE0C220821CD48FFF7A3FE0C22092130
:100FC000CA48FFF79EFE0C220A21C848FFF799FE87
:100FD0000C220E21C548FFF794FE0C220F21C348B6
:100FE000FFF78FFE0C220721C148FFF78AFE0C2273
:100FF0000821BF48FFF785FE0C220921BC48FFF7F6
:1010000080FE0C220A21BA48FFF77BFE0C220B213E
:10101000B748FFF776FE0C221146B548FFF771FE80
:101020000C220D21B248FFF76CFE0C220E21B048B5
:10103000FFF767FE0C220F21AD48FFF762FE0C227E
:101040001146AC48FFF75DFE0C221146AA48FFF797
:1010500058FE0F200890002009903C200A900020A4
:101060000B900C900D900E900920019000200290A2
:101070000820039000200490059006900790062019
:101080000F900020109011901020129000201390CB
:1010900015901490169017904FF4805018900020DF
:1010A00019904FF480401A9000201B9008A81C90C3
:1010B00001A81D900FA8FFF769FD01210620FFF789
:1010C0004BFD322003F03AFFD32002F00FFD02F077
:1010D0001DFB8A49888002F019FB8849888002F04C
:1010E00015FB86498880084680884FF6FF7101EA23
:1010F00000208249888002F009FB804989880843E2
:101100007E4988800846808849F2413188427DD0F6
:10111000042002F0EBFC02F0F9FA7849888002F032
:10112000F5FA7649888002F0F1FA74498880084619
:1011300080884FF6FF7101EA00207049888002F034
:10114000E5FA6E49898808436C498880084680889A
:1011500048F25251884203D147F28970674988802A
:101160006648808847F289718842D0D0D42002F046
:10117000BDFC02F0CBFA6149888002F0C7FA5F49F2
:10118000888002F0C3FA5D498880084680884FF65F
:10119000FF7101EA00205949888002F0B7FA5749E7
:1011A00089880843554988800846808845F210316F
:1011B00088426BD055214FF4704002F0ADFCAA215B
:1011C0004FF2010002F0A8FC52214FF2020002F09F
:1011D000A3FC08214FF2030002F09EFC01214FF214
:1011E000040002F099FC4FF4454002F07FFC02F04D
:1011F0008DFA42498880084680884FF6FF7101EADF
:1012000000203E4988804CF2015000E03EE002F0B0
:101210006DFC02F07BFA3949898808433749888098
:10122000052003F08BFE35488088B0F5004F03D1D0
:1012300045F21050314988803048808845F210517D
:10124000884223D0A12002F051FC02F05FFA2B4922
:10125000888002F05BFA29498880084680884FF62A
:10126000FF7101EA00202549888002F04FFA2349E6
:1012700089880843214988800846808845F2617141
:10128000884203D141F663101C4988801B4880883E
:1012900049F24131884217D01848808847F2897155
:1012A000884211D01548808845F2103188420BD011
:1012B0001248808845F21051884205D00F48808836
:1012C00041F6631188423BD10D48006820F00F00C1
:1012D0004FF02041C1F81C010846D0F81C0120F451
:1012E0007060C1F81C010DE000040240000C0240D7
:1012F0000010024000140240001802406C0100205F
:101300001C0100A00846D0F81C0140F00300C1F801
:101310001C01FE48808847F28971884208D1FC4848
:10132000006840F440704FF02041C1F81C0107E014
:10133000F748006840F400704FF02041C1F81C01EC
:10134000F2488188F3A003F01DF9F048808849F243
:10135000413188427ED1CF2002F0C8FB002002F04C
:10136000B9FBC12002F0B6FB302002F0B3FBED2048
:1013700002F0BCFB642002F0ADFB032002F0AAFBEC
:10138000122002F0A7FB812002F0A4FBE82002F06B
:10139000ADFB852002F09EFB102002F09BFB7A2023
:1013A00002F098FBCB2002F0A1FB392002F092FB67
:1013B0002C2002F08FFB002002F08CFB342002F086
:1013C00089FB022002F086FBF72002F08FFB202031
:1013D00002F080FBEA2002F089FB002002F07AFB99
:1013E000002002F077FBC02002F080FB1B2002F0FF
:1013F00071FBC12002F07AFB012002F06BFBC520DB
:1014000002F074FB302002F065FB302002F062FB3A
:10141000C72002F06BFBB72002F05CFB362002F025
:1014200065FB482002F056FB3A2002F05FFB552096
:1014300002F050FBB12002F059FB002002F04AFB01
:101440001A2002F047FBB62002F050FB0A2002F0FF
:1014500041FB00E097E0A22002F03CFBF22002F00A
:1014600045FB002002F036FB262002F03FFB012066
:1014700002F030FBE02002F039FB0F2002F02AFBE3
:101480002A2002F027FB282002F024FB082002F08B
:1014900021FB0E2002F01EFB082002F01BFB542053
:1014A00002F018FBA92002F015FB432002F012FB0A
:1014B0000A2002F00FFB0F2002F00CFB002002F0CC
:1014C00009FB002002F006FB002002F003FB0020D5
:1014D00002F000FBE12002F009FB002002F0FAFA22
:1014E000152002F0F7FA172002F0F4FA072002F0B4
:1014F000F1FA112002F0EEFA062002F0EBFA2B20AE
:1015000002F0E8FA562002F0E5FA3C2002F0E2FA96
:10151000052002F0DFFA102002F0DCFA0F2002F0C2
:10152000D9FA3F2002F0D6FA3F2002F0D3FA0F207A
:1015300002F0D0FA2B2002F0D9FA002002F0CAFA09
:10154000002002F0C7FA012002F0C4FA3F2002F0A6
:10155000C1FA2A2002F0CAFA002002F0BBFA0020E9
:1015600002F0B8FA002002F0B5FAEF2002F0B2FA69
:10157000112002F0BBFA782003F0E0FC292002F0F1
:10158000B5FA02F0B3B86148808847F289718842A1
:101590007ED1112002F0AAFA782003F0CFFC362089
:1015A00002F0A4FA002002F095FA3A2002F09EFA26
:1015B000052002F08FFAB22002F098FA0C2002F017
:1015C00089FA0C2002F086FA002002F083FA332018
:1015D00002F080FA332002F07DFAB72002F086FA9A
:1015E000352002F077FABB2002F080FA322002F0B8
:1015F00071FAC02002F07AFA0C2002F06BFAC220D5
:1016000002F074FA012002F065FAC32002F06EFACB
:10161000102002F05FFAC42002F068FA202002F0E5
:1016200059FAC62002F062FA0F2002F053FAD020D5
:1016300002F05CFAA42002F04DFAA12002F04AFA6E
:10164000E02002F053FAD02002F044FA002002F029
:1016500041FA022002F03EFA072002F03BFA0A208B
:1016600002F038FA282002F035FA322002F032FA7D
:10167000442002F02FFA422002F02CFA062002F059
:1016800029FA0E2002F026FA122002F023FA00E0D6
:1016900061E0142002F01EFA172002F01BFAE1208C
:1016A00002F024FAD02002F015FA002002F012FA1B
:1016B000022002F00FFA072002F00CFA0A2002F0D2
:1016C00009FA282002F006FA312002F003FA542029
:1016D00002F000FA472002F0FDF90E2002F0FAF9BC
:1016E0001C2002F0F7F9172002F0F4F91B2002F099
:1016F000F1F91E2002F0EEF92A2002F0F7F900209D
:1017000002F0E8F9002002F0E5F90BE06C0100209E
:101710001C0100A0204C43442049443A25780D0A7E
:1017200000000000002002F0D5F9EF2002F0D2F90D
:101730002B2002F0DBF9002002F0CCF9002002F0AF
:10174000C9F9012002F0C6F93F2002F0C3F92920AF
:1017500002F0CCF915E7FE48808845F21031884246
:1017600040F07C87ED2002F0C1F9012002F0B2F9CF
:10177000FE2002F0AFF9EE2002F0B8F9DE2002F010
:10178000A9F9212002F0A6F9F12002F0AFF9012019
:1017900002F0A0F9DF2002F0A9F9102002F09AF976
:1017A000C42002F0A3F98F2002F094F9C62002F0C1
:1017B0009DF9002002F08EF9E22002F08BF9E22080
:1017C00002F088F9E22002F085F9BF2002F08EF9DC
:1017D000AA2002F07FF9B02002F088F90D2002F073
:1017E00079F9002002F076F90D2002F073F900205B
:1017F00002F070F9112002F06DF9002002F06AF990
:10180000192002F067F9002002F064F9212002F0AB
:1018100061F9002002F05EF92D2002F05BF9002052
:1018200002F058F93D2002F055F9002002F052F97B
:101830005D2002F04FF9002002F04CF95D2002F02B
:1018400049F9002002F046F9B12002F04FF980205A
:1018500002F040F9002002F03DF98B2002F03AF945
:10186000002002F037F9962002F034F9002002F04F
:1018700031F9B22002F03AF9002002F02BF90020F1
:1018800002F028F9022002F025F9002002F022F9E6
:10189000032002F01FF9002002F01CF9B32002F02F
:1018A00025F9002002F016F9002002F013F90020BB
:1018B00002F010F9002002F00DF9002002F00AF900
:1018C000002002F007F9002002F004F9002002F0E5
:1018D00001F9002002F0FEF8002002F0FBF80020E1
:1018E00002F0F8F8002002F0F5F8002002F0F2F81B
:1018F000002002F0EFF8002002F0ECF8002002F0E7
:10190000E9F8002002F0E6F8002002F0E3F80020F9
:1019100002F0E0F8002002F0DDF8002002F0DAF832
:10192000002002F0D7F8002002F0D4F8002002F0E6
:10193000D1F8B42002F0DAF88B2002F0CBF80020C6
:1019400002F0C8F8962002F0C5F8002002F0C2F8B4
:10195000A12002F0BFF8002002F0BCF8B52002F090
:10196000C5F8022002F0B6F8002002F0B3F8032018
:1019700002F0B0F8002002F0ADF8042002F0AAF85E
:10198000002002F0A7F8B62002F0B0F8002002F024
:10199000A1F8002002F09EF8B72002F0A7F800207E
:1019A00002F098F8002002F095F83F2002F092F83B
:1019B000002002F08FF85E2002F08CF8002002F088
:1019C00089F8642002F086F8002002F083F88C2069
:1019D00002F080F8002002F07DF8AC2002F07AF8E6
:1019E000002002F077F8DC2002F074F8002002F00A
:1019F00071F8702002F06EF8002002F06BF8902071
:101A000002F068F8002002F065F8EB2002F062F8BE
:101A1000002002F05FF8DC2002F05CF8002002F009
:101A200059F8B82002F062F8002002F053F80020C4
:101A300002F050F8002002F04DF8002002F04AF8C1
:101A4000002002F047F8002002F044F8002002F0E5
:101A500041F8002002F03EF8BA2002F047F82420B6
:101A600002F038F8002002F035F8002002F032F8D9
:101A7000002002F02FF8C12002F038F8202002F0F8
:101A800029F8002002F026F8542002F023F8002064
:101A900002F020F8FF2002F01DF8002002F01AF8F2
:101AA000C22002F023F80A2002F014F8002002F00D
:101AB00011F8042002F00EF8002002F00BF8C32009
:101AC00002F014F83C2002F005F8002002F002F8C1
:101AD0003A2001F0FFFF002001F0FCFF392001F067
:101AE000F9FF002001F0F6FF372001F0F3FF00209E
:101AF00001F0F0FF3C2001F0EDFF002001F0EAFFD3
:101B0000362001F0E7FF002001F0E4FF322001F071
:101B1000E1FF002001F0DEFF2F2001F0DBFF0020BD
:101B200001F0D8FF2C2001F0D5FF002001F0D2FFFA
:101B3000292001F0CFFF002001F0CCFF262001F08A
:101B4000C9FF002001F0C6FF242001F0C3FF01E01F
:101B50006C010020002001F0BDFF242001F0BAFF3D
:101B6000002001F0B7FF232001F0B4FF002001F0B6
:101B7000B1FF3C2001F0AEFF002001F0ABFF3620AA
:101B800001F0A8FF002001F0A5FF322001F0A2FF24
:101B9000002001F09FFF2F2001F09CFF002001F0AA
:101BA00099FF2C2001F096FF002001F093FF2920DF
:101BB00001F090FF002001F08DFF262001F08AFF48
:101BC000002001F087FF242001F084FF002001F0B5
:101BD00081FF242001F07EFF002001F07BFF232005
:101BE00001F078FF002001F075FFC42001F07EFFB6
:101BF000622001F06FFF002001F06CFF052001F072
:101C000069FF002001F066FF842001F063FF0020DF
:101C100001F060FFF02001F05DFF002001F05AFFAD
:101C2000182001F057FF002001F054FFA42001F01C
:101C300051FF002001F04EFF182001F04BFF002063
:101C400001F048FF502001F045FF002001F042FF65
:101C50000C2001F03FFF002001F03CFF172001F0B5
:101C600039FF002001F036FF952001F033FF0020FE
:101C700001F030FFF32001F02DFF002001F02AFFDA
:101C8000E62001F027FF002001F024FFC52001F02D
:101C90002DFF322001F01EFF002001F01BFF442029
:101CA00001F018FF002001F015FF652001F012FF80
:101CB000002001F00FFF762001F00CFF002001F062
:101CC00009FF882001F006FF002001F003FFC62075
:101CD00001F00CFF202001F0FDFE002001F0FAFED3
:101CE000172001F0F7FE002001F0F4FE012001F0C2
:101CF000F1FE002001F0EEFEC72001F0F7FE00200B
:101D000001F0E8FE002001F0E5FE002001F0E2FE17
:101D1000002001F0DFFEC82001F0E8FE002001F005
:101D2000D9FE002001F0D6FE002001F0D3FE0020F5
:101D300001F0D0FEC92001F0D9FE002001F0CAFE5A
:101D4000002001F0C7FE002001F0C4FE002001F0D9
:101D5000C1FE002001F0BEFE002001F0BBFE00200D
:101D600001F0B8FE002001F0B5FE002001F0B2FE47
:101D7000002001F0AFFE002001F0ACFE002001F0D9
:101D8000A9FE002001F0A6FE002001F0A3FE002025
:101D900001F0A0FE002001F09DFEE02001F0A6FE73
:101DA000162001F097FE002001F094FE1C2001F0A7
:101DB00091FE002001F08EFE212001F08BFE00201C
:101DC00001F088FE362001F085FE002001F082FE41
:101DD000462001F07FFE002001F07CFE522001F041
:101DE00079FE002001F076FE642001F073FE0020F1
:101DF00001F070FE7A2001F06DFE002001F06AFE15
:101E00008B2001F067FE002001F064FE992001F0B4
:101E100061FE002001F05EFEA82001F05BFE0020C4
:101E200001F058FEB92001F055FE002001F052FEED
:101E3000C42001F04FFE002001F04CFECA2001F04A
:101E400049FE002001F046FED22001F043FE0020B2
:101E500001F040FED92001F03DFE002001F03AFEE5
:101E6000E02001F037FE002001F034FEF32001F005
:101E700031FE002001F02EFEE12001F037FE162099
:101E800001F028FE002001F025FE1C2001F022FEBA
:101E9000002001F01FFE222001F01CFE002001F0B6
:101EA00019FE362001F016FE002001F013FE452039
:101EB00001F010FE002001F00DFE522001F00AFE9C
:101EC000002001F007FE642001F004FE002001F074
:101ED00001FE7A2001F0FEFD002001F0FBFD8B20C9
:101EE00001F0F8FD002001F0F5FD992001F0F2FD70
:101EF000002001F0EFFDA82001F0ECFD002001F032
:101F0000E9FDB92001F0E6FD002001F0E3FDC42069
:101F100001F0E0FD002001F0DDFDCA2001F0DAFD56
:101F2000002001F0D7FDD22001F0D4FD002001F007
:101F3000D1FDD82001F0CEFD002001F0CBFDE02046
:101F400001F0C8FD002001F0C5FDF32001F0C2FD45
:101F5000002001F0BFFDE22001F0C8FD052001F0E6
:101F6000B9FD002001F0B6FD0B2001F0B3FD00200B
:101F700001F0B0FD1B2001F0ADFD002001F0AAFD35
:101F8000342001F0A7FD002001F0A4FD442001F061
:101F9000A1FD002001F09EFD4F2001F09BFD0020DF
:101FA00001F098FD612001F095FD002001F092FD07
:101FB000792001F08FFD002001F08CFD882001F0D8
:101FC00089FD002001F086FD972001F083FD0020AF
:101FD00001F080FDA62001F07DFD002001F07AFDDA
:101FE000B72001F077FD002001F074FDC22001F060
:101FF00071FD002001F06EFDC72001F06BFD002097
:1020000001F068FDD12001F065FD002001F062FDC6
:10201000D62001F05FFD002001F05CFDDD2001F025
:1020200059FD002001F056FDF32001F053FD002082
:1020300001F050FDE32001F059FD052001F04AFDBB
:10204000002001F047FD0A2001F044FD002001F0CE
:1020500041FD1C2001F03EFD002001F03BFD33203E
:1020600001F038FD002001F035FD442001F032FD83
:10207000002001F02FFD502001F02CFD002001F088
:1020800029FD622001F026FD002001F023FD7820CB
:1020900001F020FD002001F01DFD882001F01AFD57
:1020A000002001F017FD972001F014FD002001F041
:1020B00011FDA62001F00EFD002001F00BFDB72060
:1020C00001F008FD002001F005FDC22001F002FD35
:1020D000002001F0FFFCC72001F0FCFC002001F013
:1020E000F9FCD12001F0F6FC002001F0F3FCD52032
:1020F00001F0F0FC002001F0EDFCDD2001F0EAFC35
:10210000002001F0E7FCF32001F0E4FC002001F0E6
:10211000E1FCE42001F0EAFC012001F0DBFC0020FE
:1021200001F0D8FC012001F0D5FC002001F0D2FC28
:10213000022001F0CFFC002001F0CCFC2A2001F0AD
:10214000C9FC002001F0C6FC3C2001F0C3FC0020CB
:1021500001F0C0FC4B2001F0BDFC002001F0BAFCF6
:102160005D2001F0B7FC002001F0B4FC742001F008
:10217000B1FC002001F0AEFC842001F0ABFC00209B
:1021800001F0A8FC932001F0A5FC002001F0A2FCC6
:10219000A22001F09FFC002001F09CFCB32001F084
:1021A00099FC002001F096FCBE2001F093FC002079
:1021B00001F090FCC42001F08DFC002001F08AFCAD
:1021C000CD2001F087FC002001F084FCD32001F039
:1021D00081FC002001F07EFCDD2001F07BFC002072
:1021E00001F078FCF32001F075FC002001F072FC96
:1021F000E52001F07BFC002001F06CFC002001F0E8
:1022000069FC002001F066FC002001F063FC022064
:1022100001F060FC002001F05DFC292001F05AFC77
:10222000002001F057FC3C2001F054FC002001F09C
:1022300051FC4B2001F04EFC002001F04BFC5D20D6
:1022400001F048FC002001F045FC742001F042FC44
:10225000002001F03FFC842001F03CFC002001F054
:1022600039FC932001F036FC002001F033FCA22061
:1022700001F030FC002001F02DFCB32001F02AFC1D
:10228000002001F027FCBE2001F024FC002001F01A
:1022900021FCC42001F01EFC002001F01BFCCD201D
:1022A00001F018FC002001F015FCD32001F012FC15
:1022B000002001F00FFCDC2001F00CFC002001F0FC
:1022C00009FCF32001F006FC002001F003FCE620ED
:1022D00001F00CFC112001F0FDFB002001F0FAFBE5
:1022E000342001F0F7FB002001F0F4FB562001F050
:1022F000F1FB002001F0EEFB762001F0EBFB00206B
:1023000001F0E8FB772001F0E5FB002001F0E2FBA3
:10231000662001F0DFFB002001F0DCFB882001F0EB
:10232000D9FB002001F0D6FB992001F0D3FB00205F
:1023300001F0D0FBBB2001F0CDFB002001F0CAFB77
:10234000992001F0C7FB002001F0C4FB662001F0DA
:10235000C1FB002001F0BEFB552001F0BBFB0020BB
:1023600001F0B8FB552001F0B5FB002001F0B2FBF5
:10237000452001F0AFFB002001F0ACFB432001F051
:10238000A9FB002001F0A6FB442001F0A3FB0020E4
:1023900001F0A0FBE72001F0A9FB322001F09AFB3D
:1023A000002001F097FB552001F094FB002001F084
:1023B00091FB762001F08EFB002001F08BFB662064
:1023C00001F088FB002001F085FB672001F082FB13
:1023D000002001F07FFB672001F07CFB002001F072
:1023E00079FB872001F076FB002001F073FB992038
:1023F00001F070FB002001F06DFBBB2001F06AFBD7
:10240000002001F067FB992001F064FB002001F03F
:1024100061FB772001F05EFB002001F05BFB4420B4
:1024200001F058FB002001F055FB562001F052FB53
:10243000002001F04FFB232001F04CFB002001F0B5
:1024400049FB332001F046FB002001F043FB45200F
:1024500001F040FB002001F03DFBE82001F046FBCD
:10246000002001F037FB002001F034FB992001F03F
:1024700031FB002001F02EFB872001F02BFB002018
:1024800001F028FB882001F025FB002001F022FB51
:10249000772001F01FFB002001F01CFB662001F0FB
:1024A00019FB002001F016FB882001F013FB00202F
:1024B00001F010FBAA2001F00DFB002001F00AFB47
:1024C000BB2001F007FB002001F004FB992001F084
:1024D00001FB002001F0FEFA662001F0FBFA00206B
:1024E00001F0F8FA552001F0F5FA002001F0F2FAB7
:1024F000552001F0EFFA002001F0ECFA442001F041
:10250000E9FA002001F0E6FA442001F0E3FA0020A5
:1025100001F0E0FA552001F0DDFA002001F0DAFACE
:10252000E92001F0E3FAAA2001F0D4FA002001F03A
:10253000D1FA002001F0CEFA002001F0CBFA002001
:1025400001F0D4FAAA2001F0C5FACF2001F0CEFAAA
:10255000002001F0BFFA002001F0BCFA002001F0D9
:10256000B9FA002001F0B6FA002001F0B3FA002019
:1025700001F0B0FA002001F0ADFA002001F0AAFA53
:10258000002001F0A7FA002001F0A4FA002001F0D9
:10259000A1FA002001F09EFA002001F09BFA002031
:1025A00001F098FA002001F095FA002001F092FA6B
:1025B000002001F08FFAF02001F098FA002001F0DD
:1025C00089FA502001F086FA002001F083FA0020F9
:1025D00001F080FA002001F07DFAF32001F086FA84
:1025E000002001F077FAF92001F080FA062001F0CE
:1025F00071FA102001F06EFA292001F06BFA002028
:1026000001F068FA3A2001F071FA552001F062FAFF
:10261000112001F06BFA642002F090FC292001F0F7
:1026200065FA352001F062FA002001F053FA5120DA
:1026300001F05CFAFF2001F04DFA532001F056FA48
:102640002C2001F047FA552001F050FA822001F0C9
:1026500041FA2C2001F04AFA01F048B8FE4880887F
:1026600045F2105188427DD155214FF4704001F060
:1026700053FAAA214FF2010001F04EFA52214FF213
:10268000020001F049FA08214FF2030001F044FA78
:1026900001214FF2040001F03FFA0D214FF43040C8
:1026A00001F03AFA0D214BF2010001F035FA0D214B
:1026B0004BF2020001F030FA34214FF4364001F0C1
:1026C0002BFA34214BF2016001F026FA34214BF24F
:1026D000026001F021FA0D214FF4314001F01CFAA3
:1026E0000D214BF2011001F017FA0D214BF20210EF
:1026F00001F012FA34214FF4374001F00DFA342181
:102700004BF2017001F008FA34214BF2027001F033
:1027100003FA00214FF4324001F0FEF900214BF2A0
:10272000012001F0F9F900214BF2022001F0F4F947
:1027300024214FF4384001F0EFF924214BF6010039
:1027400001F0EAF924214BF6020001F0E5F901213C
:102750004FF43F4001F0E0F90F214FF4334001F016
:10276000DBF900E0FDE30F214BF2013001F0D4F979
:102770000F214BF2023001F0CFF934214FF43940F0
:1027800001F0CAF934214BF6011001F0C5F93421EA
:102790004BF6021001F0C0F908214FF4354001F06A
:1027A000BBF908214BF2015001F0B6F908214BF2B8
:1027B000025001F0B1F903214FF4424001F0ACF9AD
:1027C00024214FF43A4001F0A7F924214BF60120CF
:1027D00001F0A2F924214BF6022001F09DF900211D
:1027E0004FF43C4001F098F978214BF6014001F09C
:1027F00093F900214BF6024001F08EF900214FF4CD
:102800003D4001F089F978214BF6015001F084F93F
:1028100000214BF6025001F07FF900214FF43E40B9
:1028200001F07AF964214BF6016001F075F900219D
:102830004FF4514001F070F933214DF2011001F0D5
:102840006BF900214DF2021001F066F934214DF2CE
:10285000031001F061F900214DF2041001F05CF960
:102860003A214DF2051001F057F900214DF2061002
:1028700001F052F94A214DF2071001F04DF9002103
:102880004DF2081001F048F95C214DF2091001F0F9
:1028900043F900214DF20A1001F03EF981214DF279
:1028A0000B1001F039F900214DF20C1001F034F950
:1028B000A6214DF20D1001F02FF900214DF20E105E
:1028C00001F02AF9E5214DF20F1001F025F901215F
:1028D0004DF2101001F020F913214DF2111001F00A
:1028E0001BF901214DF2121001F016F954214DF29D
:1028F000131001F011F901214DF2141001F00CF93F
:1029000082214DF2151001F007F901214DF2161048
:1029100001F002F9CA214DF2171001F0FDF8022171
:102920004DF2181001F0F8F800214DF2191001F0E5
:10293000F3F802214DF21A1001F0EEF801214DF2E8
:102940001B1001F0E9F802214DF21C1001F0E4F82F
:1029500034214DF21D1001F0DFF802214DF21E105E
:1029600001F0DAF867214DF21F1001F0D5F80221CD
:102970004DF2201001F0D0F884214DF2211001F029
:10298000CBF802214DF2221001F0C6F8A4214DF23D
:10299000231001F0C1F802214DF2241001F0BCF81F
:1029A000B7214DF2251001F0B7F802214DF22610A3
:1029B00001F0B2F8CF214DF2271001F0ADF802215D
:1029C0004DF2281001F0A8F8DE214DF2291001F097
:1029D000A3F802214DF22A1001F09EF8F2214DF2E7
:1029E0002B1001F099F802214DF22C1001F094F80F
:1029F000FE214DF22D1001F08FF803214DF22E1023
:102A000001F08AF810214DF22F1001F085F8032112
:102A10004DF2301001F080F833214DF2311001F009
:102A20007BF803214DF2321001F076F86D214DF262
:102A3000331001F071F800214FF4524001F06CF8AE
:102A400033214DF2012001F067F800214DF2022000
:102A500001F062F8342101E06C0100204DF2032006
:102A600001F05AF800214DF2042001F055F83A2106
:102A70004DF2052001F050F800214DF2062001F042
:102A80004BF84A214DF2072001F046F800214DF2A3
:102A9000082001F041F85C214DF2092001F03CF8DA
:102AA00000214DF20A2001F037F881214DF20B2070
:102AB00001F032F800214DF20C2001F02DF8A62192
:102AC0004DF20D2001F028F800214DF20E2001F00A
:102AD00023F8E5214DF20F2001F01EF801214DF2FF
:102AE000102001F019F813214DF2112001F014F813
:102AF00001214DF2122001F00FF854214DF2132064
:102B000001F00AF801214DF2142001F005F88221AC
:102B10004DF2152001F000F801214DF2162000F0D1
:102B2000FBFFCA214DF2172000F0F6FF02214DF203
:102B3000182000F0F1FF00214DF2192000F0ECFF09
:102B400002214DF21A2000F0E7FF01214DF21B2077
:102B500000F0E2FF02214DF21C2000F0DDFF3421E5
:102B60004DF21D2000F0D8FF02214DF21E2000F092
:102B7000D3FF67214DF21F2000F0CEFF02214DF25E
:102B8000202000F0C9FF84214DF2212000F0C4FF75
:102B900002214DF2222000F0BFFFA4214DF223209C
:102BA00000F0BAFF02214DF2242000F0B5FFB7215A
:102BB0004DF2252000F0B0FF02214DF2262000F05A
:102BC000ABFFCF214DF2272000F0A6FF02214DF2EE
:102BD000282000F0A1FFDE214DF2292000F09CFF0B
:102BE00002214DF22A2000F097FFF2214DF22B2016
:102BF00000F092FF02214DF22C2000F08DFFFE210B
:102C00004DF22D2000F088FF03214DF22E2000F020
:102C100083FF10214DF22F2000F07EFF03214DF2A3
:102C2000302000F079FF33214DF2312000F074FFA5
:102C300003214DF2322000F06FFF6D214DF2332061
:102C400000F06AFF00214FF4534000F065FF33218C
:102C50004DF2013000F060FF00214DF2023000F033
:102C60005BFF34214DF2033000F056FF00214DF29E
:102C7000043000F051FF3A214DF2053000F04CFFD6
:102C800000214DF2063000F047FF4A214DF2073097
:102C900000F042FF00214DF2083000F03DFF5C21C2
:102CA0004DF2093000F038FF00214DF20A3000F0FB
:102CB00033FF81214DF20B3000F02EFF00214DF249
:102CC0000C3000F029FFA6214DF20D3000F024FF5A
:102CD00000214DF20E3000F01FFFE5214DF20F30C4
:102CE00000F01AFF01214DF2103000F015FF132102
:102CF0004DF2113000F010FF01214DF2123000F0C2
:102D00000BFF54214DF2133000F006FF01214DF26C
:102D1000143000F001FF82214DF2153000F0FCFE6E
:102D200001214DF2163000F0F7FECA214DF21730A6
:102D300000F0F2FE02214DF2183000F0EDFE00210D
:102D40004DF2193000F0E8FE02214DF21A3000F089
:102D5000E3FE01214DF21B3000F0DEFE02214DF2B8
:102D60001C3000F0D9FE34214DF21D3000F0D4FEAD
:102D700002214DF21E3000F0CFFE67214DF21F30D0
:102D800000F0CAFE02214DF2203000F0C5FE842181
:102D90004DF2213000F0C0FE02214DF2223000F051
:102DA000BBFEA4214DF2233000F0B6FE02214DF20D
:102DB000243000F0B1FEB7214DF2253000F0ACFE1A
:102DC00002214DF2263000F0A7FECF214DF2273030
:102DD00000F0A2FE02214DF2283000F09DFEDE211F
:102DE0004DF2293000F098FE02214DF22A3000F019
:102DF00093FEF2214DF22B3000F08EFE02214DF2B7
:102E00002C3000F089FEFE214DF22D3000F084FEC2
:102E100003214DF22E3000F07FFE10214DF22F30B5
:102E200000F07AFE03214DF2303000F075FE3321C0
:102E30004DF2313000F070FE03214DF2323000F0DF
:102E40006BFE6D214DF2333000F066FE00214FF431
:102E5000544000F061FE33214DF2014000F05CFE71
:102E600000214DF2024000F057FE34214DF20340A4
:102E700000F052FE00214DF2044000F04DFE3A21D8
:102E80004DF2054000F048FE00214DF2064000F0F2
:102E900043FE4A214DF2074000F03EFE00214DF274
:102EA000084000F039FE5C214DF2094000F034FE8C
:102EB00000214DF20A4000F02FFE81214DF20B401F
:102EC00000F02AFE00214DF20C4000F025FEA62164
:102ED0004DF20D4000F020FE00214DF20E4000F0BA
:102EE0001BFEE5214DF20F4000F016FE01214DF2D0
:102EF000104000F011FE13214DF2114000F00CFEC5
:102F000001214DF2124000F007FE54214DF2134012
:102F100000F002FE01214DF2144000F0FDFD82217F
:102F20004DF2154000F0F8FD01214DF2164000F081
:102F3000F3FDCA214DF2174000F0EEFD02214DF2E3
:102F4000184000F0E9FD00214DF2194000F0E4FDC9
:102F500002214DF21A4000F0DFFD01214DF21B402D
:102F600000E005E300F0D8FD02214DF21C4000F026
:102F7000D3FD34214DF21D4000F0CEFD02214DF273
:102F80001E4000F0C9FD67214DF21F4000F0C4FD56
:102F900002214DF2204000F0BFFD84214DF221407E
:102FA00000F0BAFD02214DF2224000F0B5FDA4214F
:102FB0004DF2234000F0B0FD02214DF2244000F01C
:102FC000ABFDB7214DF2254000F0A6FD02214DF2E8
:102FD000264000F0A1FDCF214DF2274000F09CFDDE
:102FE00002214DF2284000F097FDDE214DF22940EC
:102FF00000F092FD02214DF22A4000F08DFDF221F9
:103000004DF22B4000F088FD02214DF22C4000F0E3
:1030100083FDFE214DF22D4000F07EFD03214DF297
:103020002E4000F079FD10214DF22F4000F074FD8C
:1030300003214DF2304000F06FFD33214DF231405D
:1030400000F06AFD03214DF2324000F065FD6D2174
:103050004DF2334000F060FD00214FF4554000F088
:103060005BFD33214DF2015000F056FD00214DF281
:10307000025000F051FD34214DF2035000F04CFDA0
:1030800000214DF2045000F047FD3A214DF2055069
:1030900000F042FD00214DF2065000F03DFD4A21B6
:1030A0004DF2075000F038FD00214DF2085000F0BD
:1030B00033FD5C214DF2095000F02EFD00214DF250
:1030C0000A5000F029FD81214DF20B5000F024FD43
:1030D00000214DF20C5000F01FFDA6214DF20D50C5
:1030E00000F01AFD00214DF20E5000F015FDE52113
:1030F0004DF20F5000F010FD01214DF2105000F084
:103100000BFD13214DF2115000F006FD01214DF28F
:10311000125000F001FD54214DF2135000F0FCFC60
:1031200001214DF2145000F0F7FC82214DF21550B0
:1031300000F0F2FC01214DF2165000F0EDFCCA2126
:103140004DF2175000F0E8FC02214DF2185000F04B
:10315000E3FC00214DF2195000F0DEFC02214DF29B
:103160001A5000F0D9FC01214DF21B5000F0D4FCA4
:1031700002214DF21C5000F0CFFC34214DF21D50C5
:1031800000F0CAFC02214DF21E5000F0C5FC672180
:103190004DF21F5000F0C0FC02214DF2205000F013
:1031A000BBFC84214DF2215000F0B6FC02214DF20F
:1031B000225000F0B1FCA4214DF2235000F0ACFCF1
:1031C00002214DF2245000F0A7FCB7214DF225500A
:1031D00000F0A2FC02214DF2265000F09DFCCF2110
:1031E0004DF2275000F098FC02214DF2285000F0DB
:1031F00093FCDE214DF2295000F08EFC02214DF2AD
:103200002A5000F089FCF2214DF22B5000F084FC92
:1032100002214DF22C5000F07FFCFE214DF22D508A
:1032200000F07AFC03214DF22E5000F075FC1021C5
:103230004DF22F5000F070FC03214DF2305000F0A1
:103240006BFC33214DF2315000F066FC03214DF24E
:10325000325000F061FC6D214DF2335000F05CFC07
:1032600000214FF4564000F057FC33214DF201602D
:1032700000F052FC00214DF2026000F04DFC3421C0
:103280004DF2036000F048FC00214DF2046000F0B4
:1032900043FC3A214DF2056000F03EFC00214DF266
:1032A000066000F039FC4A214DF2076000F034FC62
:1032B00000214DF2086000F02FFC5C214DF2096006
:1032C00000F02AFC00214DF20A6000F025FC81216B
:1032D0004DF20B6000F020FC00214DF20C6000F07C
:1032E0001BFCA6214DF20D6000F016FC00214DF2F2
:1032F0000E6000F011FCE5214DF20F6000F00CFCB7
:1033000001214DF2106000F007FC13214DF2116015
:1033100000F002FC01214DF2126000F0FDFB54218F
:103320004DF2136000F0F8FB01214DF2146000F043
:10333000F3FB82214DF2156000F0EEFB01214DF20E
:10334000166000F0E9FBCA214DF2176000F0E4FBC3
:1033500002214DF2186000F0DFFB00214DF21960F0
:1033600000F0DAFB02214DF21A6000F0D5FB0121DA
:103370004DF21B6000F0D0FB02214DF21C6000F00A
:10338000CBFB34214DF21D6000F0C6FB02214DF253
:103390001E6000F0C1FB67214DF21F6000F0BCFB16
:1033A00002214DF2206000F0B7FB84214DF2216034
:1033B00000F0B2FB02214DF2226000F0ADFBA4212F
:1033C0004DF2236000F0A8FB02214DF2246000F0D2
:1033D000A3FBB7214DF2256000F09EFB02214DF2C8
:1033E000266000F099FBCF214DF2276000F094FB9E
:1033F00002214DF2286000F08FFBDE214DF22960A2
:1034000000F08AFB02214DF22A6000F085FBF221D8
:103410004DF22B6000F080FB02214DF22C6000F099
:103420007BFBFE214DF22D6000F076FB03214DF277
:103430002E6000F071FB10214DF22F6000F06CFB4C
:1034400003214DF2306000F067FB33214DF2316013
:1034500000F062FB03214DF2326000F05DFB6D2154
:103460004DF2336000F058FB55214FF4704000F0EE
:1034700053FBAA214FF2010000F04EFB52214FF204
:10348000020000F049FB08214FF2030000F044FB6A
:1034900000214FF2040000F03FFBCC214FF43140FB
:1034A00000F03AFB00214BF2011000F035FB052142
:1034B0004FF4364000F030FB70214FF4374000F0FD
:1034C0002BFB70214BF2017000F026FB01214FF421
:1034D000384000F021FB03214BF6010000F01CFBFB
:1034E00003214BF6020000F017FB03214BF603000B
:1034F00000F012FB02214FF43C4000F00DFB0021D4
:103500004BF6014000F008FB00214BF6024000F0B2
:1035100003FBD0214FF4494000F0FEFA02214CF6A3
:10352000011000F0F9FA50214CF6021000F0F4FA04
:1035300050214CF6031000F0EFFA50214CF6041025
:1035400000F0EAFA00214FF4545000F0E5FA55215A
:103550004FF4685000F0E0FA4FF4885000F0C6FADB
:10356000782001F00BFD4FF4245000F0BFFABDE0CD
:103570006448808841F663118842F8D1E22000F067
:10358000B5FA1D2000F0A6FA022000F0A3FA0420EC
:1035900000F0A0FA642001F0F1FCE02000F0A6FAAF
:1035A000012000F097FA0A2001F0C8FCE02000F0AA
:1035B0009DFA032000F08EFA0C2001F0BFFC0120E0
:1035C00000F094FA0A2001F0B9FCE62000F08EFA2F
:1035D0002F2000F07FFAFF2000F07CFAFF2000F09F
:1035E00079FAB02000F082FA202000F073FA00206F
:1035F00000F070FA032000F06DFA40F21F3000F086
:1036000069FA012000F066FA40F2DF1000F062FA79
:10361000002000F05FFAB42000F068FA042000F007
:1036200059FA40F21F4000F055FA002000F052FA1B
:103630002E2000F04FFA002000F04CFA002000F09D
:1036400049FA002000F046FA002000F043FAB620C4
:1036500000F04CFA022000F03DFA4FF4037000F045
:1036600039FA002000F036FA172000F033FA15205E
:1036700000F030FA002000F02DFA002000F02AFAC5
:10368000F02000F033FA032000F024FA292000F0A3
:103690002DFAD02000F02AFA002000F01BFABE20FC
:1036A00000F024FA052000F015FAFE2000F012FACE
:1036B000012000F00FFA002000F00CFA002000F0CA
:1036C00009FA002000F006FAB82000F00FFA0320F3
:1036D00000F000FA012000F0FDF9BA2000F006FA2F
:1036E000012000F0F7F9642000F01AF80020FDF73F
:1036F00049FB0120044908604FF6FF70FDF728FBE5
:1037000021B000BD6C010020BC82404208B50348D6
:1037100000880090BDF8000008BD00008000006C2B
:1037200070B52DED048B0446BE2000F0DFF90520B6
:1037300000F0D0F92046FCF7CCFE41EC190B9FEDD0
:103740000E0B53EC102BFCF752FE41EC180BFCF760
:10375000CDFE85B2284600F0BDF9012000F0BAF98F
:10376000FF2000F0B7F9002000F0B4F9002000F0CD
:10377000B1F9BDEC048B70BD666666666666044092
:10378000F0B505460024002789488079012805D135
:103790008748808841F66311884208D1844880793F
:1037A000F0B98348808841F66311884218D1082D0A
:1037B00015D2DFE805F00406080A0C0E10120625E3
:1037C0000DE007250BE0042509E0052507E00125AC
:1037D00005E0002503E0032501E0022500BF00BF4E
:1037E000082D1CD2DFE805F00406090C0F1215188D
:1037F00000BF14E044F0800411E044F040040EE007
:1038000044F0C0040BE044F0200408E044F06004FD
:1038100005E044F0A00402E044F0E00400BF00BF73
:103820006348808845F21051884202D14FF45857BE
:1038300000E036275E48808849F24131884205D051
:103840005B48808847F28971884201D144F00804BE
:103850002146384600F060F95548808841F66311EA
:1038600088421DD004F0200068B1514800885049BA
:103870004988884214DA4E48068840884C490880B6
:10388000084646800CE04A480088494949888842F1
:1038900006DD474806884088454908800846468036
:1038A0004348808845F21051884252D140494889A6
:1038B00000F01CF9002000F00DF93D494989491C30
:1038C00088B200F013F9002000F004F93849498962
:1038D000891C88B200F00AF935490988491EC1F3EC
:1038E0000F2000F0F7F832494989C91C88B200F06E
:1038F000FDF82F490978491EC8B200F0EBF82C49B1
:10390000888900F0F3F8002000F0E4F8284989895C
:10391000491C88B200F0EAF8002000F0DBF82449E6
:103920008989891C88B200F0E1F821494988491E3B
:10393000C1F30F2000F0CEF81D498989C91C88B257
:1039400000F0D4F81A498978491EC8B200F0C2F8CC
:103950002DE01749488900F0C9F8002000F0BAF8B6
:10396000002000F0B7F812490988491EC1F30F2062
:1039700000F0B0F80E490978491EC8B200F0AAF864
:103980000B49888900F0B2F8002000F0A3F800206D
:1039900000F0A0F806494988491EC1F30F2000F045
:1039A00099F803498978491EC8B200F093F8F0BD30
:1039B0006C01002010B502460C464548808841F64F
:1039C0006311884247D142488079A8B940480088AD
:1039D000401E801A82B23E49488900F087F80020D4
:1039E00000F078F8002000F075F8101200F072F87E
:1039F000D0B200F06FF816E03549488900F076F84B
:103A0000101200F067F8D0B200F064F8304909886D
:103A1000491EC1F30F2000F05DF82D490978491EB9
:103A2000C8B200F057F82A49888900F05FF82012E0
:103A300000F050F8E0B200F04DF825494988491EE1
:103A4000C1F30F2000F046F821498978491EC8B219
:103A500000F040F83AE01E48808845F21051884254
:103A600020D11B49488900F041F8101200F032F8CB
:103A700017494989491C88B200F038F8D0B200F0E3
:103A800029F81349888900F031F8201200F022F853
:103A90000F498989491C88B200F028F8E0B200F08B
:103AA00019F813E00A49488900F020F8101200F0D4
:103AB00011F8D0B200F00EF80549888900F016F828
:103AC000201200F007F8E0B200F004F810BD00008A
:103AD0006C01002001B5BDF800000090BDF80000A9
:103AE0000149088008BD00008000006C01B5BDF8E8
:103AF00000000090BDF800000149088008BD0000EA
:103B00007E00006C0248008902490880704700006E
:103B10006C0100207E00006C034A10804FF0D842F8
:103B2000A2F88010704700007E00006C1CB50121D7
:103B3000202000F0BFF84FF4C060009001208DF805
:103B4000040000208DF8060003208DF805000120F8
:103B50008DF8070069460448FDF78BF84FF4C06103
:103B60000148FDF7F1F81CBD0014024000BFFEE75C
:103B70007047000070B5002100230F22C4781CB3E9
:103B8000174C246804F4E064C4F5E064C4F307212E
:103B9000C1F10404E3B20A4144789C40E1B2847864
:103BA000144021430C07210E0E4C05786155047812
:103BB00004F01F050124AC4005786D11AD0005F13E
:103BC000E025C5F8004109E0047804F01F05012450
:103BD000AC40054D0678761145F8264070BD0000D2
:103BE0000CED00E000E400E080E100E00249014368
:103BF000024A1160704700000000FA050CED00E079
:103C000010B500F001F810BD0EB50121042000F040
:103C100051F80121202000F08DF8234800F078FBB6
:103C2000082206212148FDF76CF8082207211F48C9
:103C3000FDF767F8C020009002208DF804008DF891
:103C4000050000208DF8060001208DF80700694668
:103C50001648FDF70EF84FF4E130154908600020D2
:103C60008880C880088188810C2048810E4800F037
:103C700017FC01210C4800F036FB012240F22551CF
:103C8000094800F0E7FB47208DF8080002208DF876
:103C9000090003208DF80A0001208DF80B0002A80E
:103CA000FFF768FF0EBD000000140140000802404D
:103CB0009808002029B1064A12680243044B1A6092
:103CC00004E0034A12688243014B1A607047000007
:103CD0003038024029B1064A12680243044B1A6088
:103CE00004E0034A12688243014B1A6070470000E7
:103CF0003838024029B1064A12680243044B1A6060
:103D000004E0034A12688243014B1A6070470000C6
:103D10004038024029B1064A12680243044B1A6037
:103D200004E0034A12688243014B1A6070470000A6
:103D30002038024029B1064A12680243044B1A6037
:103D400004E0034A12688243014B1A607047000086
:103D50004438024029B1064A12680243044B1A60F3
:103D600004E0034A12688243014B1A607047000066
:103D700024380240F0B5002100220024022500264C
:103D80000223324F3F6807F00C0121B1042905D00E
:103D9000082937D105E02E4F076036E02D4F076028
:103DA00033E02A4F3F1F3F68C7F38056274F3F1F1E
:103DB0003F6807F03F036EB1264FB7FBF3F7DFF81C
:103DC0008CC0ACF1040CDCF800C0CCF3881C07FB01
:103DD0000CF40CE01E4FB7FBF3F7DFF870C0ACF14A
:103DE000040CDCF800C0CCF3881C07FB0CF4174F64
:103DF0003F1F3F68C7F301477F1C7D00B4FBF5F709
:103E0000076002E0124F076000BF00BF0F4F3F681E
:103E100007F0F0010909104F7A5C0768D740476046
:103E20000A4F3F6807F4E051890A0B4F7A5C4768F4
:103E3000D7408760054F3F6807F46041490B064F44
:103E40007A5C4768D740C760F0BD00000838024080
:103E50000024F40000127A000A0000200CB50020B3
:103E6000019000903448006840F480303249086086
:103E700000BF3148006800F4003000900198401CF9
:103E80000190009818B90198B0F5A04FF1D12A48D7
:103E9000006800F4003010B10120009001E0002023
:103EA00000900098012846D123484030006840F037
:103EB00080502149403108602048006840F440406B
:103EC0001E4908601C48083000681B49083108601A
:103ED0000846006840F4004008600846006840F466
:103EE000A05008601648091F0860081F006840F0CD
:103EF0008070091F086000BF0F48006800F0007064
:103F00000028F9D040F205700E4908600A480830D0
:103F1000006820F00300084908310860084600687E
:103F200040F00200086000BF03480830006800F05D
:103F30000C000828F8D10CBD003802400070004089
:103F400008544007003C0240042808D14FF0E0210B
:103F5000096941F004014FF0E022116107E04FF0E0
:103F6000E021096921F004014FF0E022116170475E
:103F700010B501F025FB012801D001F007FB10BDB1
:103F800010B51548006840F47000134908601348E4
:103F9000006840F001001149086000200F49083115
:103FA00008600E4800680E4908400C4908600D483A
:103FB000091D0860081F006820F48020091F0860A0
:103FC000002006490C310860FFF748FF4FF0006001
:103FD00001498039086010BD88ED00E000380240DA
:103FE000FFFFF6FE1030002410B50121064800F056
:103FF00036F8012802D105A000F0C4FA01210248D8
:1040000000F02AF810BD00000004004054494D3370
:10401000CAE4B3F62E2E2E2E2E2E2E0D0A000000F0
:1040200010B50121064800F01AF8012802D105A0B8
:1040300000F0A8FA0121024800F00EF810BD0000BF
:10404000000C004054494D35CAE4B3F62E2E2E2EF6
:104050002E2E2E0D0A000000CA430282704730B592
:104060000246002000230024158A05EA01039589F1
:1040700005EA010413B10CB1012000E0002030BDBD
:1040800010B540F225511D4800F0BAF910B31B4895
:1040900000F070FAC4B21A48008800F40040C8B9B1
:1040A0001748008800F4804060B10A2C03D000203B
:1040B0001349088020E01248008840F4004010496D
:1040C000088019E00D2C06D10D48008840F480408E
:1040D0000B49088010E00A480088C0F30D00094928
:1040E0000C5407480088401C054908800846008891
:1040F000C72801DD0020088010BD0000001001402D
:1041000008000020A400002010B540F225511B48F3
:1041100000F076F928B3194800F02CFAC4B2184818
:10412000008800F40040E0B915480088C8281CDA6F
:10413000134801880088401C114A108011484454DB
:10414000432C02D01048047017E00F480078542820
:1041500008D10B48008840F400400949088000F06D
:1041600077FE0AE00848047007E00548008840F43C
:1041700000400349088000F06BFE10BD0044004081
:1041800046000020480200204800002070B50024AE
:1041900040F22441194800F033F970B340F2244151
:1041A000164800F091F8154800F0E4F9C5B2002176
:1041B0001348FCF79DFB13491148FCF77FFB10489F
:1041C000FCF758FC0446C4F57A700F49088000BF1C
:1041D0000B48FCF745FC0028FAD14FF47A710848E7
:1041E000FCF778FC01210648FCF782FB07480088B1
:1041F00040F400400549088000BF70BD0048004001
:1042000028600240400F0010500000204E000020A7
:1042100010B540F22551264800F0F2F8002845D0AC
:10422000234800F0A7F9C4B2224801780078401C66
:10423000204A10702048445410460078022835DB8C
:104240001E48007880B110460078401E1A49085C6C
:10425000432819D110460078801E085C542813D1D9
:104260000120174908700FE012480078401E1249DB
:10427000085C592808D10F480078801E085C532834
:1042800002D101200D4908700D48007870B10B482B
:10429000007858B101200B490870002008490870C7
:1042A000064908700449034A1278885410BD00007A
:1042B0000014014049000020080700204B000020A6
:1042C0004C0000204A00002010B50022002340F6D8
:1042D0006A14A14200D100BF0A1201249440A3B283
:1042E000DC43048010BD21B1828942F400528281F6
:1042F00004E082894DF6FF731A40828170471AB13B
:10430000838A0B43838202E0838A8B4383827047D4
:1043100010B504463248844208D101211020FFF72D
:1043200019FD00211020FFF715FD57E02D488442AC
:1043300009D101214804FFF7EDFC00214FF40030C2
:10434000FFF7E8FC4AE02848844209D101218804AB
:10435000FFF7E0FC00214FF48020FFF7DBFC3DE09D
:104360002248844209D10121C804FFF7D3FC00216F
:104370004FF40020FFF7CEFC30E01D48844209D105
:1043800001210805FFF7C6FC00214FF48010FFF75C
:10439000C1FC23E01748844208D101212020FFF707
:1043A000D9FC00212020FFF7D5FC17E012488442F9
:1043B00009D101218807FFF7ADFC00214FF08040B3
:1043C000FFF7A8FC0AE00D48844207D1012140050F
:1043D000FFF7A0FC00216005FFF79CFC10BD00006A
:1043E000001001400044004000480040004C0040E4
:1043F000005000400014014000780040007C004064
:1044000070B50246002400230025002040F66A16FD
:10441000B14200D100BFC1F3421501F01F030126D4
:1044200006FA03F3012D02D19689334006E0022DEE
:1044300002D1168A334001E0968A33400C120126DD
:1044400006FA04F41688344013B10CB1012000E0E0
:10445000002070BDF0B50346002400260025002092
:1044600040F66A17B94200D100BF1846C1F34214A2
:1044700001F01F06012707FA06F5012C01D10C30C7
:1044800004E0022C01D1103000E014301AB10768AA
:104490002F43076002E00768AF430760F0BD0000EC
:1044A0002DE9FF4705460E460024A14600BFA04661
:1044B000B08900B100BF2C8A24F44054F088044332
:1044C0002C82AC8941F20C608443B0883189084366
:1044D000718908430443AC81AC8A24F44074B089E8
:1044E0000443AC826846FFF745FC2048854202D071
:1044F0001F48854202D1DDF80C9001E0DDF80890FC
:10450000A88900F4004040B109EBC90000EB091094
:1045100031684900B0FBF1F707E009EBC90000EB97
:10452000091031688900B0FBF1F76420B7FBF0F0A7
:1045300004012009642101FB1078A88900F40040DF
:1045400040B1322000EBC800B0FBF1F000F00700F2
:10455000044308E0322000EB08106421B0FBF1F0C6
:1045600000F00F0004432C81BDE8FF8700100140DC
:104570000014014001468888C0F30800704700BF5E
:10458000FEE700000FB4054B10B503A9044A0298DA
:1045900000F0DAF810BC5DF814FB0000C54F00080D
:1045A0000400002002E008C8121F08C1002AFAD146
:1045B00070477047002001E001C1121F002AFBD1A3
:1045C000704700002DE9FF5F82B00021DDE9043073
:1045D000020DDDF840B0034318D044F61050A2F2AB
:1045E000FF3242431514119801281FD0A5EB0B0090
:1045F000401C5FEA000A4FF000064E4FDFF838918A
:10460000B046504615D5CAF1000413E011980124B4
:104610004AA3012801D16FEA0B010298119AC0E95F
:104620000031C0E9024206B0BDE8F09FCBF10000C6
:10463000DFE704460021404A491842EB0450CDE927
:10464000001012E0E00707D032463B46404649469C
:10465000FBF7CDFE8046894632463B46104619465A
:10466000FBF7C5FE06460F466410002CEAD1DDE9D3
:104670000401DDE90023BAF1000F06DAFBF7B7FE0B
:1046800042464B46FBF7B3FE05E0FCF71DF84246F9
:104690004B46FCF719F804460E460022284BFCF75F
:1046A0009BF803D84FF0FF30014607E00022254B6E
:1046B00020463146FBF7F4FDFCF775F8102409E0BD
:1046C000002C0ADB0A220023FBF73FFF039B30325A
:1046D0001A55641E50EA0102F2D1641C039AC4F117
:1046E00011031444119A012A03D0012208430DD169
:1046F0000AE0084304D000204FF0110B119072E73C
:10470000A3EB0B056D1E0DE05B4504DD4FF00002D1
:1047100005F1010504E003DA4FF00002A5F10105FF
:10472000002AECD002981199C0E90231C0E9004595
:1047300079E70000000014400000F03F3000000066
:104740000000F0430000E03F2DE9FF4F95B09A468E
:10475000884606460025EEE1252877D10024274625
:10476000F94A0121039400E0044316F8013F203B7D
:1047700001FA03F01042F7D130782A2811D06FF0F7
:104780002F033078A0F13002092A16D8039A44F09A
:10479000020402EB820203EB42021044761C0390F7
:1047A000EFE758F8042B0392002A03DA504244F44E
:1047B0000054039044F00204761C30782E2816D161
:1047C00016F8010F44F004042A280DD06FF02F02D0
:1047D0003078A0F13003092B09D807EB870302EBEF
:1047E0004303C718761CF3E758F8047B761C30782F
:1047F0006C280FD006DC4C2817D068280DD06A280A
:1048000014D104E0742810D07A280FD10DE044F4BC
:1048100000140AE044F4801401E044F44014727877
:10482000824202D104F58014761C761C307866280A
:104830000BD013DC582877D009DC002875D0452828
:10484000F6D04628F4D047281AD193E118E063281F
:1048500035D0642879D0652812D18BE1702873D0C7
:1048600008DC6728F1D069286FD06E280DD06F283A
:1048700006D1ACE073282CD0752874D0782853D09A
:104880005246179990476D1C54E1C4F30250022818
:1048900009D003280DD0D8F8001004280DD00D60E1
:1048A00008F1040846E1D8F80010EA17C1E90052FF
:1048B000F6E7D8F800100D80F2E70D70F0E718F871
:1048C000041B8DF8001000208DF80100EB4601203C
:1048D00003E058F804BB4FF0FF3061074FF00001D0
:1048E00002D40DE009F101018946B9420FDA814590
:1048F000F8DB1BF809100029F4D108E009F10101E7
:1049000089468142FADB1BF809100029F6D1039889
:104910005346A0EB090721463846179A00F080FA63
:10492000284400EB090507E044E008E10DE01BF82E
:10493000010B524617999047B9F10109F7D2534636
:1049400021463846179AF2E039E00A21C4F30252B0
:104950004FF0000B0091022A06D058F8040BC11743
:10496000032A09D00AE023E008F1070020F007023B
:10497000F2E80201904605E000B2C117042A01D115
:1049800040B2C117002906DA0A460021404261EB15
:1049900002012D2202E0220504D52B228DF80420ED
:1049A000012203E0E20701D02022F7E7914657E019
:1049B0000A2100E010214FF0000B00910BE01021C4
:1049C0004FF0000B44F004040827009103E0082096
:1049D0004FF0000B0090C4F30252022A05D058F8A1
:1049E000040B0021032A08D008E008F1070020F09A
:1049F0000702F2E80201904603E080B2042A00D1E7
:104A0000C0B24FF0000922072AD53278702A07D0A9
:104A1000DDF800C08CF0100C5CEA0B0C05D00EE049
:104A200040228DF80420012208E050EA010306D05C
:104A300030238DF804308DF8052002229146009B2A
:104A400083F0080353EA0B030AD150EA010201D1B3
:104A5000620705D530228DF804204FF001097F1E32
:104A60003278582A04D039A20C920CAA02920BE098
:104A70003BA2F9E75B46009AFBF767FD0C9B9B5C4A
:104A8000029A521E0292137050EA0102F2D1029869
:104A900004A9081A00F1200B600702D524F4803421
:104AA00000E001275F4502DDA7EB0B0000E00020DE
:104AB00000EB0B01009003984944401A0390E00377
:104AC00006D453462146179A039800F0A9F90544E5
:104AD000002706E001A85246C05D179990476D1C5B
:104AE0007F1C4F45F6DBE0030CD553462146179A51
:104AF000039800F095F9054404E0302052461799D8
:104B000090476D1C0099481E00900029F5DC08E0D4
:104B10000298029952460078491C029117999047D1
:104B20006D1CBBF10001ABF1010BF1DC5BE100F0AE
:104B300065F90544761C307800287FF40DAE19B075
:104B40002846BDE8F08F00000928010030313233DB
:104B500034353637383961626364656600000000B9
:104B600030313233343536373839414243444546A3
:104B700000000000600700D4062708F1070020F0BD
:104B80000700F0E80223804603F0004C5FEA0C00C7
:104B900001D097A009E0200501D596A005E0E00727
:104BA00001D095A001E0AFF24C001390307823F0D3
:104BB000004365280CD006DC452809D046281DD0C6
:104BC00047287FD13BE0662818D067287AD136E0A5
:104BD0000021112F01DB112000E0781CCDE900013C
:104BE00004A90CA8FFF7EEFCDDE90D010C9A4FF0CB
:104BF000000B07F10109109200914EE04FF00040C8
:104C00000097CDE9011004A90CA8FFF7DBFCDDE952
:104C10000D020C9B0F994FF0000B914610930092E0
:104C200011B9791C00EB0109B7EB090003D4C0F1FD
:104C3000FF3B07F10109A9EB0700019042E0012FBA
:104C400000DA01270021112F01DD112000E0384694
:104C5000CDE9000104A90CA8FFF7B4FCDDE90D01C2
:104C60000C9A00914FF0000BB946109221070FD417
:104C7000009A4A4503DA914601E0A9F10109B9F128
:104C8000010F05DD109AA9F10101515C3029F4D022
:104C9000B84202DA10F1040F03DA0121CDE9011064
:104CA00010E0002803DC8344A9EB000102E0411C72
:104CB000494500DD8946A0EB0B00401C01904FF0F8
:104CC00000400290200705D40198484502DB4FF0D0
:104CD000FF30019000208DF84B0002980DF14B073A
:104CE000B0F1004F25D002200C902B200D9002989F
:104CF00000280CDA404202902D200D9007E00A2196
:104D00000298FBF70CFC3031029007F8011D0C995A
:104D1000481E0C900029F2DC02980028EFD1791E81
:104D20000D980870307800F0200040F0450007F83A
:104D3000020D11A8C01BC01D02901398007800B18D
:104D4000012000EB0901019801EBE0710298014498
:104D50000398401A401E0390E00306D453462146B0
:104D6000179A039800F05CF805441398007818B17E
:104D70005246179990476D1CE00323D553462146B0
:104D8000179A039800F04CF805441BE0BBF1000FA4
:104D900007DB0098584504DD1098179910F80B00B0
:104DA00001E0179930205246904701980BF1010B12
:104DB000401E05F10105019004D12E20524617999D
:104DC00090476D1CB9F10001A9F10109DEDC05E095
:104DD00017F8010B5246179990476D1C0299481E0F
:104DE00002900029F4DC53462146179A03989EE668
:104DF0002D0000002B000000200000002DE9F041F4
:104E0000044600251E461746880404D405E03946AA
:104E10002020B0476D1C641EF9D52846BDE8F081FE
:104E20002DE9F041044600251E469046C80301D5F1
:104E3000302700E02027880404D505E041463846A5
:104E4000B0476D1C641EF9D52846BDE8F08100000E
:104E500010B524480078401C052190FBF1F201FBBD
:104E6000120021490978884217D01E49097801EBC0
:104E7000C10202EB01111D4A02EBC1000B221C49C9
:104E8000FBF7FCF917480078401C052190FBF1F274
:104E900001FB12001349087020E01249097801EB68
:104EA000C10202EB0111114A02EBC1000B221049B1
:104EB000FBF7E4F90C480078401C052190FBF1F267
:104EC00001FB12000849087006480078401C0521C3
:104ED00090FBF1F201FB1200024908700020054925
:104EE000088010BD210000202000002010030020B9
:104EF000480200204600002070B504460420FFF759
:104F000023F80C48047025464FF47A70454301207D
:104F1000094908804FF0E020006940F002004FF09E
:104F2000E021086108464561006940F00100086120
:104F300070BD0000000000200200002070B5044693
:104F400000F03EFB012810D00B480088844206D3B5
:104F500009480088B4FBF0F5284600F081FA0648BD
:104F60000088B4FBF0F100FB11444FF47A7104FBAC
:104F700001F000F003F870BD0200002070B5034698
:104F800000224FF0E02675690D4E367803FB06F4DB
:104F90004FF0E026B16910E04FF0E026B06988429A
:104FA0000BD0884202D20E1A324402E02E1A0E446E
:104FB00032440146A24200D300E0EDE700BF70BDDD
:104FC0000000002000BF054A128802F04002002ABB
:104FD000F9D0C2B2014B9A80704700000010014026
:104FE00008B54FF44070FEF701FEA820FFF784FFDC
:104FF0004FF4E13000F0C6F8FEF798FD4FF478402A
:105000000C490880FBF756FF4FF4E13000F010F92F
:10501000FEF7F6FD0020009004216846FBF708FC2F
:1050200007E005A0FFF7AEFA02E006A0FFF7AAFA34
:10503000FBE7F6E71A0000203132333435360D0A2B
:105040000000000036373839300D0A00F0B50B305B
:10505000154D20F007010024144A0FE003688B422D
:105060000BD38B4205D95E1A43184768C3E9006722
:1050700000E04368136002C004E0021D10680028CD
:10508000ECD12046002802D1286808B10020F0BDEC
:10509000064A07481060074A121A22F00702C0E9C0
:1050A000002401202860D7E7A00000209C000020F9
:1050B00064130020606300202DE9F04105460E4690
:1050C0001C4807681C480068001D00F013F950B91F
:1050D0001948006890F82C10012088401749096889
:1050E000814316480160681C38B936B1124801681E
:1050F000091D134800F02CF91AE07C190E480068CD
:105100004460BC4207D20C480168091D0D48006884
:1051100000F004F90CE008480168091D0A4800681D
:1051200000F0FCF809480068844201D20748046096
:10513000BDE8F08168000020540000206C000020D1
:10514000481300205C00002058000020840000204C
:105150000A490968096809B9012100E0002121B163
:105160004FF0FF31064A116006E004490968C9683A
:10517000C868034A41681160704700005800002069
:105180008400002010B588B0044601210846FEF7CF
:1051900091FD01211020FEF7CDFD072209212248B3
:1051A000FBF7AFFD07220A211F48FBF7AAFD4FF4CA
:1051B000C060069002208DF81C008DF81D000020B4
:1051C0008DF81E0001208DF81F0006A91648FBF778
:1051D00050FD02940020ADF80C00ADF80E00ADF8C3
:1051E0001000ADF814000C20ADF8120002A90F4811
:1051F000FFF756F901210D48FFF775F8012240F23B
:1052000025510A48FFF726F925208DF804000320D0
:105210008DF805008DF8060001208DF8070001A823
:10522000FEF7A8FC08B010BD0000024000100140CD
:1052300010B588B0044601210220FEF73BFD012194
:105240008804FEF757FD07220A212748FBF759FD7E
:1052500007220B212448FBF754FD4FF440600690D1
:1052600002208DF81C008DF81D0000208DF81E0016
:1052700001208DF81F0006A91B48FBF7FAFC0294D9
:105280000020ADF80C00ADF80E00ADF81000ADF840
:1052900014000C20ADF8120002A91448FFF700F921
:1052A00027208DF8040003208DF805008DF80600F6
:1052B00001208DF8070001A8FEF75CFC00200C49D6
:1052C0000880012240F224410848FFF7C3F8012278
:1052D00040210648FFF713F8FBF7FEFB01210348C6
:1052E000FFF701F808B010BD00040240004800407C
:1052F0004E00002001460A69D1E901309860D1E9E9
:10530000010358605068884201D1886850600020CD
:1053100008611068401E10601068704710B50246A2
:105320000B685C1C0CB9106907E002F1080000E092
:105330004068446824689C42FAD944684C604C68D0
:10534000A160886041600A611468641C146010BD2B
:1053500042684A6093688B60936859609160086105
:1053600003685B1C0360704710B500BF502080F3DA
:105370001188BFF34F8FBFF36F8F00BF0B480068DA
:10538000401C0A4908600846006801280DD10848F9
:105390000068C0B208B9012000E0002028B940F23E
:1053A000B91204A10EA0FFF7EDF810BD9000002087
:1053B00004ED00E02E2E5C4672656552544F535C3E
:1053C000706F727461626C655C525644535C4152FA
:1053D0004D5F434D34465C706F72742E6300000065
:1053E0004572726F723A25732C25640D0A00000015
:1053F00010B50B48006828B94FF4E07209A114A059
:10540000FFF7C0F806480068401E054908600846D6
:10541000006820B9002080F3118800BF00BF10BDD4
:10542000900000202E2E5C4672656552544F535CEE
:10543000706F727461626C655C525644535C415289
:105440004D5F434D34465C706F72742E63000000F4
:105450004572726F723A25732C25640D0A000000A4
:1054600070B504460025ACB10F48006808B90120AA
:1054700000E0002028B940F2CF420CA110A0FFF7B5
:1054800081F800F027F800212046FFF715FE00F014
:1054900057F905463DB94FF080500D490860BFF3FC
:1054A0004F8FBFF36F8F70BD8C0000202E2E5C4697
:1054B00072656552544F535C7461736B732E630055
:1054C0004572726F723A25732C25640D0A00000034
:1054D00004ED00E002480068401C01490860704784
:1054E0008C00002010B51B48006818B101201A4933
:1054F00008602DE000201849086018480068B0FADC
:1055000080F0C0F11F0404EB8400154951F820001D
:1055100008B1012000E0002028B940F6F62211A1D0
:1055200015A0FFF72FF804EB84010D4A02EB810070
:1055300041684968416000F1080142688A4202D12D
:105540004168496841604168C9680F4A116000BFFD
:1055500010BD00008C000020780000206C000020AE
:10556000781000202E2E5C4672656552544F535CB5
:105570007461736B732E63004572726F723A257398
:105580002C25640D0A0000005400002010B500BF57
:10559000502080F31188BFF34F8FBFF36F8F00BF90
:1055A00000F01EF818B14FF080500449086000BFA9
:1055B000002080F3118800BF10BD000004ED00E062
:1055C0000549096809B9012005E00449096809B9D4
:1055D000022000E000207047700000208C000020B6
:1055E0002DE9F0414FF0000841480068002872D1D1
:1055F00040480068451C3F480560EDB93E480068DA
:10560000006808B9012000E0002028B940F6D9124E
:105610003AA13FA0FEF7B6FF374807684048006848
:10562000354908603E4807603E480068401C3D49D7
:105630000860FFF78DFD00BF3B48006885423CD302
:1056400000BF2D480068006808B9012000E0002074
:1056500020B14FF0FF30344908602DE02648006843
:10566000C068C4686668B54202D22F48066023E06D
:10567000201DFFF73FFEA06A18B104F11800FFF7E4
:1056800039FE94F82C100120884028490968084305
:1056900026490860E16A01EB8101254A02EB81009D
:1056A000211DFFF755FE2349E06A0968C96A88424F
:1056B000C7D34FF00108C4E700BF1E480068C06AA6
:1056C00000EB80001A4951F82000012801D94FF061
:1056D000010805E0FFE718480068401C164908600B
:1056E0001648006808B14FF001084046BDE8F08157
:1056F0008C00002068000020580000202E2E5C4600
:1057000072656552544F535C7461736B732E630002
:105710004572726F723A25732C25640D0A000000E1
:105720005C0000207C000020840000206C00002031
:105730007810002054000020740000207800002021
:1057400070B5002400263448006828B94FF4FD6283
:1057500032A137A0FEF716FFFFF706FE2E480068BD
:10576000401E2D4908600846006800284FD1344883
:10577000006800284BD024E03248C068C46804F1B7
:105780001800FFF7B7FD201DFFF7B4FD94F82C10AB
:10579000012088402C49096808432B490860E16AC8
:1057A00001EB8101294A02EB8100211DFFF7D0FDA9
:1057B0002749E06A0968C96A884202D3012025495D
:1057C00008602048006808B9012000E00020002897
:1057D000D2D00CB1FFF7BCFC1F48056865B100BF13
:1057E000FFF7FEFE10B101201A4908606D1E002D62
:1057F000F6D10020184908601648006838B1012623
:10580000300716490860BFF34F8FBFF36F8FFFF764
:10581000EFFD304670BD00008C0000202E2E5C464F
:1058200072656552544F535C7461736B732E6300E1
:105830004572726F723A25732C25640D0A000000C0
:1058400064000020201300206C000020781000204D
:1058500054000020780000207400002004ED00E0D7
:105860008058000800000020A4000000A4450008A3
:1058700024590008A4000020BC720000B4450008B0
:105880000000000000000000000000000000010215
:10589000030401020304060708090000FFFF0000DB
:1058A00000005359808100010FBD544300535985B6
:1058B0008200010FC35443005359818200010FBF7E
:1058C0005443000000000000000000000000000041
:1058D00000000000000000000000000000000000C8
:1058E00000000000000000000000000000000000B8
:1058F00000000000000000000000000000000000A8
:105900000000000000000000000000000000000097
:10591000AAAAAAAA000000000000000000000000DF
:045920000000000083
:040000050800018965
:00000001FF
